{
  "contractName": "TokenControl",
  "abi": [
    {
      "inputs": [],
      "payable": false,
      "stateMutability": "nonpayable",
      "type": "constructor",
      "signature": "constructor"
    },
    {
      "constant": false,
      "inputs": [
        {
          "name": "_token",
          "type": "address"
        },
        {
          "name": "_to",
          "type": "address"
        },
        {
          "name": "_amount",
          "type": "uint256"
        }
      ],
      "name": "transfer",
      "outputs": [
        {
          "name": "success",
          "type": "bool"
        }
      ],
      "payable": false,
      "stateMutability": "nonpayable",
      "type": "function",
      "signature": "0xbeabacc8"
    },
    {
      "constant": true,
      "inputs": [
        {
          "name": "_token",
          "type": "address"
        },
        {
          "name": "_account",
          "type": "address"
        }
      ],
      "name": "balanceOf",
      "outputs": [
        {
          "name": "balance",
          "type": "uint256"
        }
      ],
      "payable": false,
      "stateMutability": "view",
      "type": "function",
      "signature": "0xf7888aec"
    }
  ],
  "bytecode": "0x608060405234801561001057600080fd5b50610345806100206000396000f30060806040526004361061004c576000357c0100000000000000000000000000000000000000000000000000000000900463ffffffff168063beabacc814610051578063f7888aec146100d6575b600080fd5b34801561005d57600080fd5b506100bc600480360381019080803573ffffffffffffffffffffffffffffffffffffffff169060200190929190803573ffffffffffffffffffffffffffffffffffffffff1690602001909291908035906020019092919050505061014d565b604051808215151515815260200191505060405180910390f35b3480156100e257600080fd5b50610137600480360381019080803573ffffffffffffffffffffffffffffffffffffffff169060200190929190803573ffffffffffffffffffffffffffffffffffffffff169060200190929190505050610239565b6040518082815260200191505060405180910390f35b60008373ffffffffffffffffffffffffffffffffffffffff1663a9059cbb84846040518363ffffffff167c0100000000000000000000000000000000000000000000000000000000028152600401808373ffffffffffffffffffffffffffffffffffffffff1673ffffffffffffffffffffffffffffffffffffffff16815260200182815260200192505050602060405180830381600087803b1580156101f257600080fd5b505af1158015610206573d6000803e3d6000fd5b505050506040513d602081101561021c57600080fd5b810190808051906020019092919050505050600190509392505050565b60008273ffffffffffffffffffffffffffffffffffffffff166370a08231836040518263ffffffff167c0100000000000000000000000000000000000000000000000000000000028152600401808273ffffffffffffffffffffffffffffffffffffffff1673ffffffffffffffffffffffffffffffffffffffff168152602001915050602060405180830381600087803b1580156102d657600080fd5b505af11580156102ea573d6000803e3d6000fd5b505050506040513d602081101561030057600080fd5b81019080805190602001909291905050509050929150505600a165627a7a72305820d5380b93ae8ffb30ae945e33dceb16a30c9dc8a75814655c7287d27344e4f2030029",
  "source": "pragma solidity >=0.4.21<0.6.0;\n//pragma experimental ABIEncoderV2;\n\nimport \"zeppelin-solidity/contracts/token/ERC20/ERC20Basic.sol\";\n\ncontract TokenControl {\n    constructor() public {}\n\n    function transfer(address _token, address _to, uint256 _amount) public returns (bool success) {\n        ERC20Basic(_token).transfer(_to, _amount);\n        return true;\n\n    }\n\n    function balanceOf(address _token, address _account) external view returns (uint256 balance) {\n        return ERC20Basic(_token).balanceOf(_account);\n    }\n\n}\n",
  "sourcePath": "/Users/o.sawada/devel/git/okm_token_dev/contracts/TokenControl.sol",
  "compiler": {
    "name": "solc",
    "version": "0.4.24+commit.e67f0147.Emscripten.clang"
  },
  "schemaVersion": "3.0.1",
  "updatedAt": "2019-01-30T07:50:28.500Z",
  "devdoc": {
    "methods": {}
  },
  "userdoc": {
    "methods": {}
  }
}